{
  "contractName": "Distributor",
  "abi": [
    {
      "inputs": [
        {
          "internalType": "uint256",
          "name": "initialRate",
          "type": "uint256"
        },
        {
          "internalType": "address payable",
          "name": "wallet",
          "type": "address"
        },
        {
          "internalType": "contract IERC20",
          "name": "tokenAddr",
          "type": "address"
        },
        {
          "internalType": "uint256",
          "name": "cap",
          "type": "uint256"
        },
        {
          "internalType": "address",
          "name": "admin",
          "type": "address"
        }
      ],
      "payable": false,
      "stateMutability": "nonpayable",
      "type": "constructor"
    },
    {
      "anonymous": false,
      "inputs": [
        {
          "indexed": true,
          "internalType": "address",
          "name": "purchaser",
          "type": "address"
        },
        {
          "indexed": true,
          "internalType": "address",
          "name": "beneficiary",
          "type": "address"
        },
        {
          "indexed": false,
          "internalType": "uint256",
          "name": "value",
          "type": "uint256"
        },
        {
          "indexed": false,
          "internalType": "uint256",
          "name": "amount",
          "type": "uint256"
        }
      ],
      "name": "TokensPurchased",
      "type": "event"
    },
    {
      "payable": true,
      "stateMutability": "payable",
      "type": "fallback"
    },
    {
      "constant": false,
      "inputs": [
        {
          "internalType": "address",
          "name": "beneficiary",
          "type": "address"
        }
      ],
      "name": "buyTokens",
      "outputs": [],
      "payable": true,
      "stateMutability": "payable",
      "type": "function"
    },
    {
      "constant": true,
      "inputs": [],
      "name": "token",
      "outputs": [
        {
          "internalType": "contract IERC20",
          "name": "",
          "type": "address"
        }
      ],
      "payable": false,
      "stateMutability": "view",
      "type": "function"
    },
    {
      "constant": true,
      "inputs": [],
      "name": "wallet",
      "outputs": [
        {
          "internalType": "address payable",
          "name": "",
          "type": "address"
        }
      ],
      "payable": false,
      "stateMutability": "view",
      "type": "function"
    },
    {
      "constant": true,
      "inputs": [],
      "name": "weiRaised",
      "outputs": [
        {
          "internalType": "uint256",
          "name": "",
          "type": "uint256"
        }
      ],
      "payable": false,
      "stateMutability": "view",
      "type": "function"
    },
    {
      "constant": false,
      "inputs": [
        {
          "internalType": "uint256",
          "name": "newRate",
          "type": "uint256"
        },
        {
          "internalType": "uint256",
          "name": "newCap",
          "type": "uint256"
        }
      ],
      "name": "setRound",
      "outputs": [],
      "payable": false,
      "stateMutability": "nonpayable",
      "type": "function"
    },
    {
      "constant": true,
      "inputs": [],
      "name": "round",
      "outputs": [
        {
          "internalType": "uint256",
          "name": "",
          "type": "uint256"
        }
      ],
      "payable": false,
      "stateMutability": "view",
      "type": "function"
    },
    {
      "constant": true,
      "inputs": [],
      "name": "rate",
      "outputs": [
        {
          "internalType": "uint256",
          "name": "",
          "type": "uint256"
        }
      ],
      "payable": false,
      "stateMutability": "view",
      "type": "function"
    },
    {
      "constant": true,
      "inputs": [],
      "name": "cap",
      "outputs": [
        {
          "internalType": "uint256",
          "name": "",
          "type": "uint256"
        }
      ],
      "payable": false,
      "stateMutability": "view",
      "type": "function"
    },
    {
      "constant": true,
      "inputs": [],
      "name": "capReached",
      "outputs": [
        {
          "internalType": "bool",
          "name": "",
          "type": "bool"
        }
      ],
      "payable": false,
      "stateMutability": "view",
      "type": "function"
    },
    {
      "constant": true,
      "inputs": [],
      "name": "capLeft",
      "outputs": [
        {
          "internalType": "uint256",
          "name": "",
          "type": "uint256"
        }
      ],
      "payable": false,
      "stateMutability": "view",
      "type": "function"
    }
  ],
  "bytecode": "0x60806040523480156200001157600080fd5b506040516200169a3803806200169a833981810160405260a08110156200003757600080fd5b81019080805190602001909291908051906020019092919080519060200190929190805190602001909291908051906020019092919050505084848460016000806101000a81548160ff0219169083151502179055506000831162000104576040517f08c379a00000000000000000000000000000000000000000000000000000000081526004018080602001828103825260148152602001807f43726f776473616c653a2072617465206973203000000000000000000000000081525060200191505060405180910390fd5b600073ffffffffffffffffffffffffffffffffffffffff168273ffffffffffffffffffffffffffffffffffffffff1614156200018c576040517f08c379a0000000000000000000000000000000000000000000000000000000008152600401808060200182810382526025815260200180620016756025913960400191505060405180910390fd5b600073ffffffffffffffffffffffffffffffffffffffff168173ffffffffffffffffffffffffffffffffffffffff16141562000214576040517f08c379a00000000000000000000000000000000000000000000000000000000081526004018080602001828103825260248152602001806200162f6024913960400191505060405180910390fd5b8260028190555081600160006101000a81548173ffffffffffffffffffffffffffffffffffffffff021916908373ffffffffffffffffffffffffffffffffffffffff16021790555080600060016101000a81548173ffffffffffffffffffffffffffffffffffffffff021916908373ffffffffffffffffffffffffffffffffffffffff1602179055505050506000851162000317576040517f08c379a000000000000000000000000000000000000000000000000000000000815260040180806020018281038252601b8152602001807f496e697469616c2072617465206973206c657373207468616e2030000000000081525060200191505060405180910390fd5b600082116200038e576040517f08c379a00000000000000000000000000000000000000000000000000000000081526004018080602001828103825260168152602001807f57656920436170206973206c657373207468616e20300000000000000000000081525060200191505060405180910390fd5b620003a9816004620003c260201b62000ef21790919060201c565b8460078190555081600681905550505050505062000586565b620003d48282620004a660201b60201c565b1562000448576040517f08c379a000000000000000000000000000000000000000000000000000000000815260040180806020018281038252601f8152602001807f526f6c65733a206163636f756e7420616c72656164792068617320726f6c650081525060200191505060405180910390fd5b60018260000160008373ffffffffffffffffffffffffffffffffffffffff1673ffffffffffffffffffffffffffffffffffffffff16815260200190815260200160002060006101000a81548160ff0219169083151502179055505050565b60008073ffffffffffffffffffffffffffffffffffffffff168273ffffffffffffffffffffffffffffffffffffffff1614156200052f576040517f08c379a0000000000000000000000000000000000000000000000000000000008152600401808060200182810382526022815260200180620016536022913960400191505060405180910390fd5b8260000160008373ffffffffffffffffffffffffffffffffffffffff1673ffffffffffffffffffffffffffffffffffffffff16815260200190815260200160002060009054906101000a900460ff16905092915050565b61109980620005966000396000f3fe6080604052600436106100915760003560e01c8063521eb27311610059578063521eb2731461017e57806382ba614f146101d5578063af910e611461021a578063ec8ac4d814610245578063fc0c546a1461028957610091565b8063146ca531146100a35780632c4e722e146100ce578063355274ea146100f95780634042b66f146101245780634f9359451461014f575b6100a161009c6102e0565b6102e8565b005b3480156100af57600080fd5b506100b8610473565b6040518082815260200191505060405180910390f35b3480156100da57600080fd5b506100e361047d565b6040518082815260200191505060405180910390f35b34801561010557600080fd5b5061010e610487565b6040518082815260200191505060405180910390f35b34801561013057600080fd5b50610139610491565b6040518082815260200191505060405180910390f35b34801561015b57600080fd5b5061016461049b565b604051808215151515815260200191505060405180910390f35b34801561018a57600080fd5b506101936104af565b604051808273ffffffffffffffffffffffffffffffffffffffff1673ffffffffffffffffffffffffffffffffffffffff16815260200191505060405180910390f35b3480156101e157600080fd5b50610218600480360360408110156101f857600080fd5b8101908080359060200190929190803590602001909291905050506104d9565b005b34801561022657600080fd5b5061022f610591565b6040518082815260200191505060405180910390f35b6102876004803603602081101561025b57600080fd5b81019080803573ffffffffffffffffffffffffffffffffffffffff1690602001909291905050506102e8565b005b34801561029557600080fd5b5061029e6105b4565b604051808273ffffffffffffffffffffffffffffffffffffffff1673ffffffffffffffffffffffffffffffffffffffff16815260200191505060405180910390f35b600033905090565b6000809054906101000a900460ff16610369576040517f08c379a000000000000000000000000000000000000000000000000000000000815260040180806020018281038252601f8152602001807f5265656e7472616e637947756172643a207265656e7472616e742063616c6c0081525060200191505060405180910390fd5b60008060006101000a81548160ff021916908315150217905550600034905061039282826105dd565b600061039d8261067c565b90506103b48260035461069a90919063ffffffff16565b6003819055506103c48382610722565b8273ffffffffffffffffffffffffffffffffffffffff166103e36102e0565b73ffffffffffffffffffffffffffffffffffffffff167f6faf93231a456e552dbc9961f58d9713ee4f2e69d15f1975b050ef0911053a7b8484604051808381526020018281526020019250505060405180910390a36104428383610730565b61044a610734565b610454838361079f565b505060016000806101000a81548160ff02191690831515021790555050565b6000600554905090565b6000600754905090565b6000600654905090565b6000600354905090565b60006006546104a8610491565b1015905090565b6000600160009054906101000a900473ffffffffffffffffffffffffffffffffffffffff16905090565b6104ed3360046107a390919063ffffffff16565b61055f576040517f08c379a00000000000000000000000000000000000000000000000000000000081526004018080602001828103825260188152602001807f444f45535f4e4f545f484156455f41444d494e5f524f4c45000000000000000081525060200191505060405180910390fd5b610575600160055461069a90919063ffffffff16565b60058190555061058482610881565b61058d8161088b565b5050565b60006105af61059e610491565b6006546108a990919063ffffffff16565b905090565b60008060019054906101000a900473ffffffffffffffffffffffffffffffffffffffff16905090565b6105e782826108f3565b600654610604826105f6610491565b61069a90919063ffffffff16565b1115610678576040517f08c379a000000000000000000000000000000000000000000000000000000000815260040180806020018281038252601d8152602001807f43617070656443726f776473616c653a2063617020657863656564656400000081525060200191505060405180910390fd5b5050565b6000610693600754836109f490919063ffffffff16565b9050919050565b600080828401905083811015610718576040517f08c379a000000000000000000000000000000000000000000000000000000000815260040180806020018281038252601b8152602001807f536166654d6174683a206164646974696f6e206f766572666c6f77000000000081525060200191505060405180910390fd5b8091505092915050565b61072c8282610a7a565b5050565b5050565b600160009054906101000a900473ffffffffffffffffffffffffffffffffffffffff1673ffffffffffffffffffffffffffffffffffffffff166108fc349081150290604051600060405180830381858888f1935050505015801561079c573d6000803e3d6000fd5b50565b5050565b60008073ffffffffffffffffffffffffffffffffffffffff168273ffffffffffffffffffffffffffffffffffffffff16141561082a576040517f08c379a0000000000000000000000000000000000000000000000000000000008152600401808060200182810382526022815260200180610fef6022913960400191505060405180910390fd5b8260000160008373ffffffffffffffffffffffffffffffffffffffff1673ffffffffffffffffffffffffffffffffffffffff16815260200190815260200160002060009054906101000a900460ff16905092915050565b8060078190555050565b6108a08160065461069a90919063ffffffff16565b60068190555050565b60006108eb83836040518060400160405280601e81526020017f536166654d6174683a207375627472616374696f6e206f766572666c6f770000815250610acb565b905092915050565b600073ffffffffffffffffffffffffffffffffffffffff168273ffffffffffffffffffffffffffffffffffffffff161415610979576040517f08c379a000000000000000000000000000000000000000000000000000000000815260040180806020018281038252602a815260200180611011602a913960400191505060405180910390fd5b60008114156109f0576040517f08c379a00000000000000000000000000000000000000000000000000000000081526004018080602001828103825260198152602001807f43726f776473616c653a20776569416d6f756e7420697320300000000000000081525060200191505060405180910390fd5b5050565b600080831415610a075760009050610a74565b6000828402905082848281610a1857fe5b0414610a6f576040517f08c379a0000000000000000000000000000000000000000000000000000000008152600401808060200182810382526021815260200180610fce6021913960400191505060405180910390fd5b809150505b92915050565b610ac78282600060019054906101000a900473ffffffffffffffffffffffffffffffffffffffff1673ffffffffffffffffffffffffffffffffffffffff16610b8b9092919063ffffffff16565b5050565b6000838311158290610b78576040517f08c379a00000000000000000000000000000000000000000000000000000000081526004018080602001828103825283818151815260200191508051906020019080838360005b83811015610b3d578082015181840152602081019050610b22565b50505050905090810190601f168015610b6a5780820380516001836020036101000a031916815260200191505b509250505060405180910390fd5b5060008385039050809150509392505050565b610c57838473ffffffffffffffffffffffffffffffffffffffff1663a9059cbb905060e01b8484604051602401808373ffffffffffffffffffffffffffffffffffffffff1673ffffffffffffffffffffffffffffffffffffffff16815260200182815260200192505050604051602081830303815290604052907bffffffffffffffffffffffffffffffffffffffffffffffffffffffff19166020820180517bffffffffffffffffffffffffffffffffffffffffffffffffffffffff8381831617835250505050610c5c565b505050565b610c7b8273ffffffffffffffffffffffffffffffffffffffff16610ea7565b610ced576040517f08c379a000000000000000000000000000000000000000000000000000000000815260040180806020018281038252601f8152602001807f5361666545524332303a2063616c6c20746f206e6f6e2d636f6e74726163740081525060200191505060405180910390fd5b600060608373ffffffffffffffffffffffffffffffffffffffff16836040518082805190602001908083835b60208310610d3c5780518252602082019150602081019050602083039250610d19565b6001836020036101000a0380198251168184511680821785525050505050509050019150506000604051808303816000865af19150503d8060008114610d9e576040519150601f19603f3d011682016040523d82523d6000602084013e610da3565b606091505b509150915081610e1b576040517f08c379a00000000000000000000000000000000000000000000000000000000081526004018080602001828103825260208152602001807f5361666545524332303a206c6f772d6c6576656c2063616c6c206661696c656481525060200191505060405180910390fd5b600081511115610ea157808060200190516020811015610e3a57600080fd5b8101908080519060200190929190505050610ea0576040517f08c379a000000000000000000000000000000000000000000000000000000000815260040180806020018281038252602a81526020018061103b602a913960400191505060405180910390fd5b5b50505050565b60008060007fc5d2460186f7233c927e7db2dcc703c0e500b653ca82273b7bfad8045d85a47060001b9050833f9150808214158015610ee957506000801b8214155b92505050919050565b610efc82826107a3565b15610f6f576040517f08c379a000000000000000000000000000000000000000000000000000000000815260040180806020018281038252601f8152602001807f526f6c65733a206163636f756e7420616c72656164792068617320726f6c650081525060200191505060405180910390fd5b60018260000160008373ffffffffffffffffffffffffffffffffffffffff1673ffffffffffffffffffffffffffffffffffffffff16815260200190815260200160002060006101000a81548160ff021916908315150217905550505056fe536166654d6174683a206d756c7469706c69636174696f6e206f766572666c6f77526f6c65733a206163636f756e7420697320746865207a65726f206164647265737343726f776473616c653a2062656e656669636961727920697320746865207a65726f20616464726573735361666545524332303a204552433230206f7065726174696f6e20646964206e6f742073756363656564a265627a7a7231582040d5f67d49a87d0ed11a48ca35cc913d6a0961efd4e851ddd7bbd85d36b2eb7964736f6c6343000511003243726f776473616c653a20746f6b656e20697320746865207a65726f2061646472657373526f6c65733a206163636f756e7420697320746865207a65726f206164647265737343726f776473616c653a2077616c6c657420697320746865207a65726f2061646472657373",
  "source": "pragma solidity ^0.5.0;\n\nimport \"@openzeppelin/contracts/access/Roles.sol\";\nimport \"@openzeppelin/contracts/crowdsale/Crowdsale.sol\";\n\ncontract Distributor is Crowdsale {\n    using SafeMath for uint256;\n    using Roles for Roles.Role;\n\n    Roles.Role private _owners;\n\n    uint256 private _round;\n    uint256 private _cap; // In wei\n    uint256 private _changeableRate; // token / wei price\n\n    constructor(\n        uint256 initialRate,\n        address payable wallet,\n        IERC20 tokenAddr,\n        uint256 cap,\n        address admin\n    ) public Crowdsale(initialRate, wallet, tokenAddr) {\n        require(initialRate > 0, \"Initial rate is less than 0\");\n        require(cap > 0, \"Wei Cap is less than 0\");\n        _owners.add(admin);\n        _changeableRate = initialRate;\n        _cap = cap;\n    }\n\n    modifier onlyAdmin() {\n        require(_owners.has(msg.sender), \"DOES_NOT_HAVE_ADMIN_ROLE\");\n        _;\n    }\n\n    function setRound(uint256 newRate, uint256 newCap) external onlyAdmin {\n        _round = _round.add(1);\n        _setRate(newRate);\n        _setCap(newCap);\n    }\n\n    function _setRate(uint256 newRate) private {\n        _changeableRate = newRate;\n    }\n\n    function _setCap(uint256 additionalCap) private {\n        _cap = _cap.add(additionalCap);\n    }\n\n    function round() public view returns (uint256) {\n        return _round;\n    }\n\n    function rate() public view returns (uint256) {\n        return _changeableRate;\n    }\n\n    function cap() public view returns (uint256) {\n        return _cap;\n    }\n\n    /**\n     * @dev Checks whether the cap has been reached.\n     * @return Whether the cap was reached\n     */\n    function capReached() public view returns (bool) {\n        return weiRaised() >= _cap;\n    }\n\n    function capLeft() public view returns (uint256) {\n        return _cap.sub(weiRaised());\n    }\n\n    /**\n     * @dev Overrides the original function\n     * @return How much token you can purchase\n     */\n    function _getTokenAmount(uint256 weiAmount)\n        internal\n        view\n        returns (uint256)\n    {\n        return weiAmount.mul(_changeableRate);\n    }\n\n    /**\n     * @dev Extend parent behavior requiring purchase to respect the funding cap.\n     * @param beneficiary Token purchaser\n     * @param weiAmount Amount of wei contributed\n     */\n    function _preValidatePurchase(address beneficiary, uint256 weiAmount)\n        internal\n        view\n    {\n        super._preValidatePurchase(beneficiary, weiAmount);\n        require(\n            weiRaised().add(weiAmount) <= _cap,\n            \"CappedCrowdsale: cap exceeded\"\n        );\n    }\n}\n",
  "sourcePath": "/Users/brianko/projects/github/explore/hypeToken/contracts/Distributor.sol",
  "compiler": {
    "name": "solc",
    "version": "0.5.17+commit.d19bba13.Emscripten.clang"
  },
  "schemaVersion": "3.3.2",
  "updatedAt": "2021-01-01T16:02:35.025Z",
  "networkType": "ethereum",
  "devdoc": {
    "methods": {
      "buyTokens(address)": {
        "details": "low level token purchase ***DO NOT OVERRIDE*** This function has a non-reentrancy guard, so it shouldn't be called by another `nonReentrant` function.",
        "params": {
          "beneficiary": "Recipient of the token purchase"
        }
      },
      "capReached()": {
        "details": "Checks whether the cap has been reached.",
        "return": "Whether the cap was reached"
      },
      "token()": {
        "return": "the token being sold."
      },
      "wallet()": {
        "return": "the address where funds are collected."
      },
      "weiRaised()": {
        "return": "the amount of wei raised."
      }
    }
  },
  "userdoc": {
    "methods": {}
  }
}